:1000000041C065C064C063C062C061C060C05FC001
:100010005EC096C45CC03AC682C659C058C057C0BC
:1000200056C055C054C000000000370034003100F5
:1000300000000000380035003200000000003600EB
:100040003300300004040404040404040202020225
:10005000020203030303030301020408102040808B
:100060000102040810200102040810200000000012
:100070000000000000030405000000000000000074
:100080006800F50711241FBECFE5D4E0DEBFCDBF69
:1000900010E0A0E6B0E0E0EAFAE102C005900D92BF
:1000A000A83FB107D9F711E0A8EFB0E001C01D9259
:1000B000A83EB107E1F710E0C4E8D0E003C0229702
:1000C000FE01E8DCC038D107D1F7E3D7E7CC98CF01
:1000D00088EF90E069E046E126E0CFD10895CF9324
:1000E000DF9388EF90E060E084D340913401242FC7
:1000F00030E0F901EE0FFF1FEE0FFF1FE45FFE4F30
:100100006083718382839383293031054CF0109290
:100110003401CCE0D1E060E070E080E090E004C029
:100120004F5F40933401F5CF29913991499159910D
:1001300035DA21E0C433D207B9F720E030E040E2FD
:1001400051E494DADF91CF9108952F923F924F922C
:100150005F926F927F928F929F92AF92BF92CF9257
:10016000DF92EF92FF920F931F93DF93CF93CDB760
:10017000DEB728970FB6F894DEBF0FBECDBF64E69A
:1001800070E080E090E032D480910B01843010F078
:1001900010920B018AE040D58823A1F180910A01D9
:1001A000823019F410920A0103C08F5F80930A0114
:1001B00080910A01813029F0813030F0823039F4A9
:1001C00003C08EE061E002C08EE060E0ECD410E09D
:1001D00011C088E061E0E7D464EF71E080E090E076
:1001E00005D488E060E0DFD464EF71E080E090E067
:1001F000FDD31F5F80910A0190E0212F30E082172C
:1002000093073CF780910B01882309F09FC08091F0
:100210000A01882309F09AC08FE06DD48C0180E137
:100220006AD498878F835BDF1B012C0188EF90E0F5
:1002300060E040E029D36B837C838D839E83C20181
:10024000B101A2019101C4DB882309F0C4C06B8114
:100250007C818D819E819B01AC01BADB882309F4EE
:100260007BC0B9C0B801882777FD8095982F99DAAF
:100270009B01AC01C201B101F5D98823DCF48EE009
:1002800060E091D488E060E014C029813A81B9012E
:10029000882777FD8095982F84DA9B01AC01C201F5
:1002A000B1012FDB181634F48EE061E07CD488E0D5
:1002B00061E079D486EC91E060E670E041D886ECAC
:1002C00091E060910A014AE050E0C3D786EC91E0EA
:1002D00067E670E035D886EC91E069817A814AE082
:1002E00050E011D886EC91E066E870E029D886EC01
:1002F00091E0B8014AE050E006D886EC91E063EA6C
:1003000070E01ED886EC91E0B201A10122E030E05D
:10031000EAD886EC91E064EB70E012D886EC91E0CC
:1003200068EB70E00DD886EC91E04B815C816D81CB
:100330007E8122E030E0D7D886EC91E066EC70E078
:10034000D4D886EC91E06AEC70E0CFD880910B01B4
:100350008F5F80930B013FC000D000D0B801882789
:1003600077FD8095982FF4E66F2E712C812C912CBF
:10037000EDB7FEB7618272828382948220E030E022
:1003800040E050E0EFEFEE2EE3E0FE2E012D112DC8
:10039000AA24BB246501BAD87A8369832F81388562
:1003A000B901882777FD8095982FEDB7FEB7618258
:1003B00072828382948220E030E040E050E0A6D850
:1003C0008B010F900F900F900F908EE025D4019726
:1003D00009F05BCF47CF28960FB6F894DEBF0FBE6B
:1003E000CDBFCF91DF911F910F91FF90EF90DF90E4
:1003F000CF90BF90AF909F908F907F906F905F90C5
:100400004F903F902F90089588E061E08DD388E071
:1004100060E0C9D38AE060E087D38EE061E084D3F6
:100420008EE060E0C0D38FE060E07ED380E160E0EA
:100430007BD381E160E078D382E160E075D386EC24
:1004400091E040E855E260E070E09FD486EC91E0F6
:100450006CEC70E04AD888EF90E030D088EF90E004
:1004600060E0C7D1ECE0F1E06193719381939193E7
:1004700021E0E433F207C1F708959C01DC011596F1
:100480006C93159716964C931697862F90E0FC0167
:10049000E85AFF4FE4911796EC9317978C5B9F4FA8
:1004A000FC01649118966C9380E89EE3A0E0B0E0B4
:1004B000F90185879687A787B08B08950F931F93BF
:1004C0008C01FC01858162E02FD380E398EFAFEFD0
:1004D000BFEFF80181879287A387B4871F910F919F
:1004E00008952F923F924F925F926F927F928F92D8
:1004F0009F92AF92BF92CF92DF92EF92FF920F93B3
:100500001F93DF93CF93CDB7DEB7C254D1400FB660
:10051000F894DEBF0FBECDBF6C01162F59D29B01E0
:10052000AC011123A1F4F60181859285A385B485E0
:1005300079018A01E81AF90A0A0B1B0BD801C701D5
:10054000805D9740A040B04010F4818938C1F60129
:100550002187328743875487148213821282118243
:100560001082858161E01FD36AEF70E080E090E047
:100570003DD2F601858161E0D7D2F601858160E048
:1005800012D364E170E080E090E030D2F894F6019C
:10059000858161E008D388E290E083D2F60185810D
:1005A00062E0C2D28AE090E07CD2F6018085682FBA
:1005B00070E0660F771F665C7F4FF7806F2C7724A3
:1005C00020E030E040E050E0FB01059114910EC0C6
:1005D000F60185859685A785B089281739074A07CA
:1005E0005B07A8F52F5F3F4F4F4F5F4FF8018081AA
:1005F00090E086219721892B59F32115310541057A
:10060000510529F120E030E040E050E0FB01059188
:1006100014914F2C55240EC0F60185859685A7852B
:10062000B089281739074A075B0788F42F5F3F4FC7
:100630004F4F5F4FF801808190E08621972184150C
:10064000950551F32115310541055105C1F4F60118
:10065000118A7894B3C0F60185859685A785B089FF
:10066000E816F9060A071B0720F0EE24FF2487018D
:1006700024C00894E11CF11C011D111D17C04E017E
:100680000894811C911C5401FB0125903490FB01BE
:10069000659174918E010F5B1E4FCF5BDE4F198306
:1006A0000883C154D140EE24FF248701F1018081E9
:1006B00090E086219721892B71F220E030E040E024
:1006C00050E013C0F60185859685A785B089281767
:1006D00039074A075B0728F020E030E040E050E0AF
:1006E0000CC02F5F3F4F4F4F5F4FFB01808190E069
:1006F000862197218415950529F3F501E082F18281
:10070000028313832483358346835783B8E0EB2E1B
:10071000F12CAE0CBF1CCF5BDE4F08811981C15498
:10072000D140A016B10609F0BECF789460E070E029
:10073000F401E080F18002811381248135814681BA
:100740005781E114F10401051105B1F121153105BD
:100750004105510589F1FB01A3E0F595E795AA95BF
:10076000E1F7EC0DFD1D8081880F8083E216F30612
:100770000407150710F4816080836F5F7F4F98E056
:10078000E92EF12C8E0C9F1C6832710589F6F6015A
:10079000448150E02181808190E0820F911D22816F
:1007A000820F911D2381820F911D90704817590768
:1007B00019F481E0818B03C0F601118A80E0CE5BE1
:1007C000DE4F0FB6F894DEBF0FBECDBFCF91DF91E5
:1007D0001F910F91FF90EF90DF90CF90BF90AF905F
:1007E0009F908F907F906F905F904F903F902F9051
:1007F0000895EF92FF920F931F93CF93DF93EC0135
:1008000060E06FDE882379F18E818B3031F08B30A0
:1008100050F18551823038F506C0688170E080E083
:1008200090E0BDD71DC0688170E080E090E0B7D750
:1008300020E030E040E853E468D87B018C01698116
:1008400070E0882777FD8095982FABD79B01AC018E
:10085000C801B701A3D62DEC3CEC4CEC5DE355D8B8
:10086000E62F692F04C0E0E070E080EC6FE72E2FE8
:10087000372F482F562FB901CA01DF91CF911F9111
:100880000F91FF90EF900895CF92DF92EF92FF9239
:100890000F931F93CF93DF93EC01C62E642F21DEBD
:1008A000882309F440C08E818B3031F08B30D8F131
:1008B00085518230C0F506C06A8170E080E090E02A
:1008C0006ED724C0DA806D2D70E06F777070882746
:1008D00077FD8095982F65D720E030E040E853E41D
:1008E00014D87B018C016B8170E0882777FD80959F
:1008F000982F57D79B01AC01C801B7014FD62DECFB
:100900003CEC4CEC5DE301D8D7FC9058CC2079F05E
:1009100026E636E646EE5FE3F8D720E030E040E03A
:1009200052E43CD604C060E070E080EC9FE7DF91C9
:10093000CF911F910F91FF90EF90DF90CF9008958E
:100940001F920F920FB60F9211242F933F938F9304
:100950009F93AF93BF938091390190913A01A091F9
:100960003B01B0913C0130913D010196A11DB11DAB
:10097000232F2D5F2D3720F02D570196A11DB11D7E
:1009800020933D018093390190933A01A0933B015C
:10099000B0933C018091350190913601A0913701CF
:1009A000B09138010196A11DB11D8093350190933E
:1009B0003601A0933701B0933801BF91AF919F9159
:1009C0008F913F912F910F900FBE0F901F90189510
:1009D0008FB7F8942091390130913A0140913B0151
:1009E00050913C018FBFB901CA0108959B01AC0130
:1009F0007FB7F8948091350190913601A09137012D
:100A0000B091380162B708B600FE05C06F3F19F01B
:100A10000196A11DB11D7FBFBA2FA92F982F88273E
:100A2000860F911DA11DB11D62E0880F991FAA1F9D
:100A3000BB1F6A95D1F7BC012EC0FFB7F894809117
:100A4000350190913601A0913701B0913801E2B79C
:100A500008B600FE05C0EF3F19F00196A11DB11DBB
:100A6000FFBFBA2FA92F982F88278E0F911DA11D88
:100A7000B11DE2E0880F991FAA1FBB1FEA95D1F7AD
:100A8000861B970B885E9340C0F221503040404057
:100A9000504068517C4F211531054105510569F6DB
:100AA0000895019739F0880F991F880F991F0297B1
:100AB0000197F1F70895789483B7826083BF83B775
:100AC000816083BF89B7816089BF1EBC8EB582609B
:100AD0008EBD8EB581608EBD8FB581608FBD85B5B1
:100AE000846085BD85B5806485BD329A319A309A1F
:100AF000379A1AB80895982F8E3008F09E50977044
:100B00008091E6008295880F880F807C892B87B9B9
:100B1000369A3699FECF24B145B1942F80E030E06B
:100B2000282B392BC9010895CF93DF93482F50E02C
:100B3000CA01885A9F4FFC0134914C5B5F4FFA0108
:100B40008491882369F190E0880F991FFC01EA5D88
:100B5000FF4FA591B491FC01E05DFF4FC591D49189
:100B6000662351F42FB7F8948C91932F9095892395
:100B70008C93888189230BC0623061F42FB7F8947D
:100B80008C91932F909589238C938881832B8883D4
:100B90002FBF06C09FB7F8948C91832B8C939FBF77
:100BA000DF91CF910895482F50E0CA0184599F4F9B
:100BB000FC012491CA01885A9F4FFC0194914C5B1F
:100BC0005F4FFA013491332331F1222381F0243035
:100BD00039F0253049F0233051F48FB58F7702C0BA
:100BE0008FB58F7D8FBD03C085B58F7D85BDE32F0C
:100BF000F0E0EE0FFF1FE05DFF4FA591B4912FB71E
:100C0000F894662321F48C919095892302C08C91ED
:100C1000892B8C932FBF0895682F70E0CB018459E6
:100C20009F4FFC012491CB01885A9F4FFC014491B6
:100C30006C5B7F4FFB019491992319F420E030E025
:100C400022C0222381F0243039F0253049F02330AE
:100C500051F48FB58F7702C08FB58F7D8FBD03C0E4
:100C600085B58F7D85BD892F90E0880F991F865CA3
:100C70009F4FFC01A591B4918C9120E030E084233A
:100C800011F021E030E0C901089508951F920F92FC
:100C90000FB60F9211242F933F934F938F939F93EF
:100CA000EF93FF935A991CC04CB120917E01309173
:100CB0007F012F5F3F4F2F733070809180019091A3
:100CC00081012817390769F0E0917E01F0917F01D9
:100CD000E25CFE4F408330937F0120937E0101C090
:100CE0008CB1FF91EF919F918F914F913F912F91F7
:100CF0000F900FBE0F901F901895E091D201F091C8
:100D0000D301E05CFF4F8191919120813181821B61
:100D1000930B8F739070892B09F0B7DF08951F92A2
:100D20000F920FB60F9211242F933F938F939F939F
:100D3000EF93FF932091C2013091C3018091C401D0
:100D40009091C5012817390711F4559813C0E09107
:100D5000C401F091C501EE57FE4F20818091C4017E
:100D60009091C50101968F7390709093C501809307
:100D7000C4012CB9FF91EF919F918F913F912F91D9
:100D80000F900FBE0F901F901895AF92BF92DF92F9
:100D9000EF92FF920F931F93CF93DF93EC017A01B1
:100DA0008B01DD24403081EE580780E0680780E049
:100DB000780711F0DD24D39491E0A92EB12CEC89B1
:100DC000FD89DD2069F0C50108A002C0880F991FC8
:100DD0000A94E2F7808360E079E08DE390E005C05B
:100DE000108260E874E88EE190E0A801970113D6C4
:100DF00021503040404050405695479537952795B3
:100E000080E12030380720F0DD2011F0DD24D7CF3D
:100E1000E889F9893083EA89FB89208319A2EE8960
:100E2000FF89408121E030E0C9010C8C02C0880FAD
:100E3000991F0A94E2F7482B4083EE89FF8940818D
:100E4000C9010D8C02C0880F991F0A94E2F7482B44
:100E50004083EE89FF894081C9010E8C02C0880F52
:100E6000991F0A94E2F7482B4083EE89FF8980811D
:100E70000F8C02C0220F331F0A94E2F7209528231B
:100E80002083DF91CF911F910F91FF90EF90DF9022
:100E9000BF90AF900895DC011C96ED91FC911D97D9
:100EA000E05CFF4F2191319180819181281B390BAA
:100EB0002F733070C9010895DC011C96ED91FC91EF
:100EC0001D97E05CFF4F20813181E054F040DF014D
:100ED000AE5BBF4F8D919C9111972817390719F47C
:100EE0002FEF3FEF07C08D919C91E80FF91F808194
:100EF000282F30E0C9010895DC011C96ED91FC918A
:100F00001D97E05CFF4F20813181E054F040DF010C
:100F1000AE5BBF4F8D919C9111972817390719F43B
:100F20002FEF3FEF10C08D919C911197E80FF91FA3
:100F300020818D919C91119701968F7390701196DD
:100F40009C938E9330E0C9010895DC0191968C91B9
:100F50009197882339F05496ED91FC9155978081B3
:100F600086FFF9CF91961C920895CF93DF93EC0101
:100F7000EE85FF85E05CFF4F20813181E054F04039
:100F80002F5F3F4F2F733070DF01AE5BBF4F8D91EE
:100F90009C91119728173907D1F3E05CFF4F8081AE
:100FA0009181E054F040E80FF91F6083EE85FF85E2
:100FB000E05CFF4F31832083EE89FF89208181E04F
:100FC00090E00F8C02C0880F991F0A94E2F7282B3B
:100FD000208381E089A3EC89FD89808180648083FE
:100FE00081E090E0DF91CF9108951092C9011092B5
:100FF000C80188EE93E0A0E0B0E08093CA0190932E
:10100000CB01A093CC01B093CD018BEE90E09093F7
:10101000C7018093C6018EE391E09093D301809342
:10102000D20182E891E09093D5018093D40120E42D
:1010300030E03093D7012093D60189E290E090937D
:10104000D9018093D8018BE290E09093DB018093EB
:10105000DA018AE290E09093DD018093DC01309325
:10106000DF012093DE018CE290E09093E101809318
:10107000E00184E08093E20183E08093E30187E074
:101080008093E40185E08093E50181E08093E601AF
:101090000895CF93DF930FDDB7D9CDE7D6E055D8CC
:1010A0002097E9F32ADEFBCFCF92DF92EF92FF92F7
:1010B0000F931F93CF93DF937C016B018A01C0E0F4
:1010C000D0E00FC0D6016D916D01D701ED91FC917B
:1010D0000190F081E02DC7010995C80FD91F01507B
:1010E00010400115110571F7CE01DF91CF911F91CD
:1010F0000F91FF90EF90DF90CF900895EF92FF92C5
:101100000F931F938C01DC01ED91FC910190F08114
:10111000E02D6DE009957C01D801ED91FC910190E5
:10112000F081E02DC8016AE009959C012E0D3F1D5C
:10113000C9011F910F91FF90EF900895CF93DF9316
:10114000EC016115710519F420E030E00FC0DB01FE
:101150000D900020E9F71197A61BB70BE881F981E4
:101160000280F381E02DAD0109959C01C901DF9159
:10117000CF9108954F925F927F928F929F92AF92FC
:10118000BF92CF92DF92EF92FF920F931F93DF9364
:10119000CF93CDB7DEB7A1970FB6F894DEBF0FBEE1
:1011A000CDBF2C01742ECB01223008F42AE019A205
:1011B00031E2C32ED12CCC0EDD1E822E9924AA241E
:1011C000BB24672D752FA501940125D479018A01CF
:1011D000C801B701A5019401FFD3472D461B089410
:1011E000C108D1084A3014F4405D01C0495CF601E1
:1011F0004083E114F1040105110521F07E2C5F2DDF
:10120000C801DFCFC201B60199DFA1960FB6F894ED
:10121000DEBF0FBECDBFCF91DF911F910F91FF9029
:10122000EF90DF90CF90BF90AF909F908F907F9086
:101230005F904F900895DC012115310541F4ED9147
:10124000FC910190F081E02D642F0995089592DFC3
:101250000895CF92DF92EF92FF920F931F936C014C
:10126000E62E9A01FF2400E010E0B801A701E3DFB9
:101270008C01C60143DF080F191FC8011F910F9190
:10128000FF90EF90DF90CF900895CF92DF92EF9292
:10129000FF920F931F93CF93DF93EC016A017B01C1
:1012A0002115310541F4E881F9810190F081E02DAB
:1012B000642F09951DC02A303105C9F477FF16C087
:1012C000E881F9810190F081E02D6DE209958C01B2
:1012D00044275527BA014C195D096E097F09CE01D3
:1012E0002AE048DF9801280F391F03C02AE042DFB7
:1012F0009C01C901DF91CF911F910F91FF90EF9059
:10130000DF90CF900895CF92DF92EF92FF920F93EC
:101310001F936C017B019A010027F7FC0095102FA9
:10132000B801A701B2DF8C01C601E8DE080F191F62
:10133000C8011F910F91FF90EF90DF90CF9008951B
:10134000FDDE08957F928F929F92AF92BF92CF92CF
:10135000DF92EF92FF920F931F93CF93DF934C0195
:101360007A018B01722ECB01BA01A801970130D30B
:10137000882321F0C40168ED70E01FC0C0E0D0E018
:1013800057016801E894D7F8C601B5012FEF3FEF88
:101390004FE75FE71DD3882349F4C601B5012FEF5E
:1013A0003FEF4FE75FE75ED1181614F0C1E0D0E0E1
:1013B000219731F0C4016CED70E0C0DEEC0184C017
:1013C000C801B7012FEF3FEF4FE75FE49AD218163D
:1013D0004CF0C801B7012FEF3FEF4FE75FEC42D170
:1013E000882324F4C40160EE70E0E7CFC801B701A0
:1013F00020E030E040E050E035D187FD03C0C0E0A0
:10140000D0E00EC0D401ED91FC910190F081E02D6F
:10141000C4016DE20995EC0117FB109517F91095C1
:1014200020E030E040E05FE3DD240AC0CA01B901FA
:1014300020E030E040E251E419D19B01AC01D394AB
:10144000D714A0F3C801B701A9D05B016C017BD10F
:101450007B018C01C401B801A7012AE030E0EBDE7A
:10146000C80FD91F772031F0C40164EE70E066DE4A
:10147000C80FD91FC801B70192D19B01AC01C601A9
:10148000B5018BD01FC020E030E040E251E43DD2F6
:101490007B018C0153D15B016C01CC24B7FCC0945F
:1014A000DC2CC401B601A5012AE030E0EEDEC80F55
:1014B000D91FC601B50175D19B01AC01C801B701A7
:1014C0006CD07A947720F9F6CE01DF91CF911F91FD
:1014D0000F91FF90EF90DF90CF90BF90AF909F90D3
:1014E0008F907F9008952EDF0895EF92FF920F93D3
:1014F0001F937C0123DE8C01C70100DE080F191F3A
:10150000C8011F910F91FF90EF9008952F923F9285
:101510004F925F926F927F928F929F92AF92BF9203
:10152000CF92DF92EF92FF920F931F93DF93CF93AF
:10153000CDB7DEB73B014C0119012A016D897E89C7
:101540008F89988D6A197B098C099D09621A730A23
:10155000840A950AA40193013FD2E218F308040912
:101560001509A801970179D22A0D3B1D4C1D5D1D5F
:10157000B901CA01CF91DF911F910F91FF90EF90B8
:10158000DF90CF90BF90AF909F908F907F906F90A3
:101590005F904F903F902F9008955058BB27AA27F7
:1015A0000ED075C166D130F06BD120F031F49F3F81
:1015B00011F41EF45BC10EF4E095E7FB51C1E92F75
:1015C00077D180F3BA17620773078407950718F07D
:1015D00071F49EF58FC10EF4E0950B2EBA2FA02D5D
:1015E0000B01B90190010C01CA01A0011124FF27D0
:1015F000591B99F0593F50F4503E68F11A16F040CB
:10160000A22F232F342F4427585FF3CF46953795C9
:101610002795A795F0405395C9F77EF41F16BA0B8E
:10162000620B730B840BBAF09150A1F0FF0FBB1F3C
:10163000661F771F881FC2F70EC0BA0F621F731F85
:10164000841F48F4879577956795B795F7959E3FE2
:1016500008F0B3CF9395880F08F09927EE0F979570
:1016600087950895D9D008F481E008950CD00FC172
:1016700007D140F0FED030F021F45F3F19F0F0C008
:10168000511139C1F3C014D198F39923C9F35523EB
:10169000B1F3951B550BBB27AA2762177307840765
:1016A00038F09F5F5F4F220F331F441FAA1FA9F31B
:1016B00033D00E2E3AF0E0E830D091505040E6950D
:1016C000001CCAF729D0FE2F27D0660F771F881F6E
:1016D000BB1F261737074807AB07B0E809F0BB0B5D
:1016E000802DBF01FF2793585F4F2AF09E3F510581
:1016F00068F0B6C000C15F3FECF3983EDCF386951E
:1017000077956795B795F7959F5FC9F7880F911DF6
:101710009695879597F90895E1E0660F771F881FE2
:10172000BB1F621773078407BA0720F0621B730B95
:10173000840BBA0BEE1F88F7E095089504D06894E7
:10174000B111D9C00895BCD088F09F5790F0B92F3F
:101750009927B751A0F0D1F0660F771F881F991F06
:101760001AF0BA95C9F712C0B13081F0C3D0B1E018
:101770000895C0C0672F782F8827B85F39F0B93F28
:10178000CCF3869577956795B395D9F73EF4909508
:101790008095709561957F4F8F4F9F4F0895E89486
:1017A00009C097FB3EF490958095709561957F4FA9
:1017B0008F4F9F4F9923A9F0F92F96E9BB27939557
:1017C000F695879577956795B795F111F8CFFAF467
:1017D000BB0F11F460FF1BC06F5F7F4F8F4F9F4F98
:1017E00016C0882311F096E911C0772321F09EE8F6
:1017F000872F762F05C0662371F096E8862F70E05C
:1018000060E02AF09A95660F771F881FDAF7880F35
:101810009695879597F90895990F0008550FAA0B8B
:10182000E0E8FEEF16161706E807F907C0F01216F3
:101830001306E407F50798F0621B730B840B950BF6
:1018400039F40A2661F0232B242B252B21F408954B
:101850000A2609F4A140A6958FEF811D811D0895E8
:1018600097F99F6780E870E060E008959FEF80EC53
:10187000089500240A9416161706180609060895F6
:1018800000240A9412161306140605060895092E5C
:101890000394000C11F4882352F0BB0F40F4BF2BCB
:1018A00011F460FF04C06F5F7F4F8F4F9F4F08950B
:1018B00057FD9058440F551F59F05F3F71F0479501
:1018C000880F97FB991F61F09F3F79F087950895E6
:1018D000121613061406551FF2CF4695F1DF08C005
:1018E000161617061806991FF1CF86957105610522
:1018F00008940895E894BB2766277727CB0197F9CA
:1019000008958ADF08F48FEF08950BD0C0CFB1DFC0
:1019100028F0B6DF18F0952309F0A2CFA7CF112445
:10192000EACFC6DFA0F3959FD1F3950F50E0551F86
:10193000629FF001729FBB27F00DB11D639FAA2724
:10194000F00DB11DAA1F649F6627B00DA11D661F73
:10195000829F2227B00DA11D621F739FB00DA11D94
:10196000621F839FA00D611D221F749F3327A00D4E
:10197000611D231F849F600D211D822F762F6A2FEA
:1019800011249F5750408AF0E1F088234AF0EE0F6F
:10199000FF1FBB1F661F771F881F91505040A9F77C
:1019A0009E3F510570F05CCFA6CF5F3FECF3983EB1
:1019B000DCF3869577956795B795F795E7959F5FE3
:1019C000C1F7FE2B880F911D9695879597F908957D
:1019D00023DF880B990B0895629FD001739FF0015C
:1019E000829FE00DF11D649FE00DF11D929FF00DAF
:1019F000839FF00D749FF00D659FF00D9927729FE6
:101A0000B00DE11DF91F639FB00DE11DF91FBD0170
:101A1000CF0111240895A1E21A2EAA1BBB1BFD01C0
:101A20000DC0AA1FBB1FEE1FFF1FA217B307E407BD
:101A3000F50720F0A21BB30BE40BF50B661F771F15
:101A4000881F991F1A9469F76095709580959095F5
:101A50009B01AC01BD01CF01089597FB092E05261E
:101A60000ED057FD04D0D7DF0AD0001C38F45095B3
:101A70004095309521953F4F4F4F5F4F0895F6F7B2
:101A800090958095709561957F4F8F4F9F4F0895EA
:101A9000EE0FFF1F0590F491E02D0994F894FFCF0D
:101AA0006D6F64653A2000506F74203120285354C4
:101AB00041525420494620484947484552205448FD
:101AC000414E293A2000506F742032202853544F41
:101AD00050204946204C4F574552205448414E29EA
:101AE0003A200048756D6964697479202841564729
:101AF000293A20002025090054656D7065726174D3
:101B00007572653A2000202A43002000444854782A
:101B100078207465737421006E616E00696E6600D2
:101B20006F7666002E000100000000B50754084BD8
:081B3000077C075C07A5070014
:00000001FF
