:1000000040C064C063C062C061C060C05FC05EC009
:100010005DC0B2C35BC05AC059C058C057C056C0BB
:1000200055C054C053C00000000000000000000391
:100030000406000000000000000001020408102077
:10004000408001020408102001020408102004046A
:100050000404040404040202020202020303030370
:1000600003030000000036003300300000000000F1
:100070003800350032000000000037003400310045
:10008000BE0111241FBECFE5D4E0DEBFCDBF10E01E
:10009000A0E6B0E0EAEFFFE002C005900D92A636C0
:1000A000B107D9F720E0A6E6B0E001C01D92AC3A56
:1000B000B207E1F710E0C2E8D0E003C02297FE01EA
:1000C0008AD7C038D107D1F734D595C799CF61E029
:1000D00088E053D460E088E089D460E08AE04DD4C1
:1000E00061E08EE04AD460E08EE080D460E08FE092
:1000F00044D460E080E141D460E081E13ED460E03E
:1001000082E13BD481E990E060D160E081E990E058
:10011000F4D2E7E6F0E0619371938193919320E04C
:10012000EF38F207C1F70895CF93DF9360E081E9DC
:1001300090E0E3D240916600242F30E0F901EE0F09
:10014000FF1FEE0FFF1FE959FF4F6083718382830A
:100150009383293031051CF01092660003C04F5F75
:1001600040936600C7E6D0E060E070E0CB012991E3
:10017000399149915991E9D420E0CF38D207B9F7A4
:1001800020E030E040E251E448D5DF91CF9108957E
:100190002F923F924F925F926F927F928F929F9297
:1001A000AF92BF92CF92DF92EF92FF920F931F9385
:1001B000CF93DF9300D000D0CDB7DEB764E670E018
:1001C00080E090E053D380918F00843010F0109243
:1001D0008F008AE040D4892B29F480918F008823F6
:1001E00099F19BC080919000823019F41092900098
:1001F00003C08F5F8093900080919000813021F048
:1002000028F0823019F005C061E001C060E08EE0A6
:10021000EDD3F12C2091900030E08F2D90E0281745
:100220003907DCF261E088E0E1D364EF71E080E05F
:1002300090E01CD360E088E0D9D364EF71E080E007
:1002400090E014D3F394E6CF80919000811165C0C3
:100250008FE06ED34C0180E16BD31C0165DF2B0175
:100260003C0140E060E081E990E0F2D16B017C016B
:10027000A3019201C301B20151D6811168C0A70147
:100280009601C701B6014AD6811161C0B401882721
:1002900077FD8095982F1F921F921F92E4E69E2E65
:1002A0009F92A12CB12C6501EE24EA9413E0F12E6B
:1002B00000E010E020E030E0A901F5D369837A8303
:1002C0008B839C83B101882777FD8095982F1F929F
:1002D0001F921F929F9220E030E0A901E4D36B01AE
:1002E0007C018EE0B8D30FB6F894DEBF0FBECDBF51
:1002F0000197C9F4B601882777FD8095982FF7D428
:100300009B01AC01C301B20184D487FF06C060E049
:100310008EE06CD360E088E069D380918F008F5FBE
:1003200080938F0014C029813A81B901882777FD15
:100330008095982FDCD49B01AC01C301B20187D515
:1003400018165CF761E08EE051D361E0E4CF0F90C6
:100350000F900F900F90DF91CF911F910F91FF9011
:10036000EF90DF90CF90BF90AF909F908F907F9055
:100370006F905F904F903F902F90089526E046E158
:1003800069E081E990E000C0DC0115966C93159757
:1003900016964C93169770E0FB01E65CFF4FE491D4
:1003A0001796EC931797FB01E25BFF4F6491189649
:1003B0006C93189740E85EE360E070E01D964D9303
:1003C0005D936D937C9350970895CF93DF93EC01E9
:1003D00062E08D81D2D240E358EF6FEF7FEF498723
:1003E0005A876B877C87DF91CF910895AF92BF9238
:1003F000CF92DF92EF92FF920F931F93CF93DF93F1
:10040000EC01AF80662311F0BA2C01C0B12CA88595
:10041000B0E0AA0FBB1FAE59BF4F40E050E0BA0199
:10042000FD0185919491FC0180818A218B1112C07C
:100430008A019B010F5F1F4F2F4F3F4FCD84DE84FA
:10044000EF84F8884C155D056E057F0538F4B90119
:10045000A801E6CF342F252FCB0104C030E020E0E7
:1004600080E090E0632F722FDF91CF911F910F9169
:10047000FF90EF90DF90CF90BF90AF900895CF9214
:10048000DF92EF92FF920F931F93CF93DF93CDB73D
:10049000DEB7C054D1400FB6F894DEBF0FBECDBF5B
:1004A0008C01F62EB3D1F11016C0F801C184D284AC
:1004B000E384F4849B01AC012C193D094E095F09CA
:1004C00069017A0130EDC31637E0D306E104F10487
:1004D00010F48189ADC0F8016187728783879487A2
:1004E0001482138212821182108261E085817ED291
:1004F0006AEF70E080E090E0B9D161E0F8018581B9
:100500003CD260E0F801858171D264E170E080E066
:1005100090E0ACD1F89461E0F801858167D288E27F
:1005200090E0DBD162E0F801858127D28AE090E09B
:10053000D4D160E0C8015ADF672B682B692B39F0F2
:1005400061E0C80153DF672B682B692B21F4F801A8
:10055000118A78946CC06E01FFEBCF1AFEEFDF0AB0
:100560009E012F5F3F4F790160E0C8013FDFF70137
:10057000608371838283938361E0C80137DFF70171
:100580006483758386839783F8E0EF0EF11CEC1487
:10059000FD0451F778949E012F5F3F4F790120E0D1
:1005A00030E0F701408151816281738184819581BE
:1005B000A681B7814115510561057105B1F100971B
:1005C000A105B10591F1F901F595E795F595E79547
:1005D000F595E795E00FF11FD080DD0C481759071E
:1005E0006A077B0710F0D08203C08D2D8160808365
:1005F0002F5F3F4FF8E0EF0EF11C2832310589F6EE
:10060000F801248130E04081818190E0840F911DC8
:100610004281840F911D4381840F911D99272817D2
:10062000390719F481E0818B03C0F801118A80E059
:10063000C05CDE4F0FB6F894DEBF0FBECDBFDF91BA
:10064000CF911F910F91FF90EF90DF90CF90089581
:10065000CF92DF92EF92FF920F931F93CF93DF938E
:10066000EC01162F642F0BDF8823D1F18E818B30A4
:1006700029F0B0F18551823038F032C06A8170E0E3
:1006800080E090E032D31FC00A81602F6F7770E066
:1006900080E090E02CD320E030E040E853E4DBD36E
:1006A0006B017C016B8170E080E090E020D39B01C6
:1006B000AC01C701B60149D22DEC3CEC4CEC5DE33A
:1006C000CAD307FD9058112379F026E636E646EEA8
:1006D0005FE3C1D320E030E040E052E436D204C012
:1006E00060E070E080EC9FE7DF91CF911F910F9168
:1006F000FF90EF90DF90CF900895CF92DF92EF922E
:10070000FF92CF93DF93EC0160E0B9DE882349F1DB
:100710008E818B3001F128F18551823010F568818E
:1007200070E080E090E0E1D220E030E040E853E487
:1007300092D36B017C01698170E080E090E0D7D2B8
:100740009B01AC01C701B60100D22DEC3CEC4CEC96
:100750005DE381D30AC0688170E080E090E0C5D29B
:1007600004C060E070E080EC9FE7DF91CF91FF90E4
:10077000EF90DF90CF9008951F920F920FB60F92D7
:1007800011242F933F938F939F93AF93BF938091A7
:10079000A4009091A500A091A600B091A70030916F
:1007A000A30023E0230F2D3720F40196A11DB11DD6
:1007B00005C026E8230F0296A11DB11D2093A300BA
:1007C0008093A4009093A500A093A600B093A700E7
:1007D0008091A8009091A900A091AA00B091AB00CF
:1007E0000196A11DB11D8093A8009093A900A0932C
:1007F000AA00B093AB00BF91AF919F918F913F91B1
:100800002F910F900FBE0F901F9018952FB7F8944F
:100810006091A4007091A5008091A6009091A7001E
:100820002FBF08953FB7F8948091A8009091A90038
:10083000A091AA00B091AB0022B708B600FE05C097
:100840002F3F19F00196A11DB11D3FBF6627782FDC
:10085000892F9A2F620F711D811D911D42E0660F35
:10086000771F881F991F4A95D1F708958F929F92FD
:10087000AF92BF92CF92DF92EF92FF926B017C0119
:10088000D1DF4B015C01C114D104E104F104E1F0BA
:100890005AD1C8DF681979098A099B09683E7340F3
:1008A0008105910580F321E0C21AD108E108F10821
:1008B00088EE880E83E0981EA11CB11CC114D104DF
:1008C000E104F10431F7DFCFFF90EF90DF90CF909C
:1008D000BF90AF909F908F9008958230910538F02F
:1008E000880F991F880F991F05970197F1F70895B1
:1008F000789483B7826083BF83B7816083BF89B7F1
:10090000816089BF1EBC8EB582608EBD8EB5816050
:100910008EBD8FB581608FBD85B5846085BD85B581
:10092000806485BD329A319A309A379A1AB8089500
:100930008E3008F08E5087702091640090E4299FDB
:1009400090011124822B87B9369A3699FECF84B153
:1009500025B190E0922B0895843039F0863049F02B
:10096000833051F48FB58F7702C08FB58F7D8FBDE7
:10097000089585B58F7D85BD0895CF93DF9390E071
:10098000FC01E65CFF4F2491FC01E25BFF4F849188
:10099000882349F190E0880F991FFC01EA58FF4F26
:1009A000A591B49184599F4FFC01C591D4919FB7F3
:1009B000611108C0F8948C91209582238C938881D2
:1009C00082230AC0623051F4F8948C91322F309512
:1009D00083238C938881822B888304C0F8948C9124
:1009E000822B8C939FBFDF91CF9108950F931F931C
:1009F000CF93DF931F92CDB7DEB7282F30E0F901F8
:100A0000EA5DFF4F8491F901E65CFF4F1491F90113
:100A1000E25BFF4F04910023C1F0882319F0698342
:100A20009BDF6981E02FF0E0EE0FFF1FE459FF4FDD
:100A3000A591B4919FB7F8948C91611103C0109562
:100A4000812301C0812B8C939FBF0F90DF91CF91A9
:100A50001F910F910895CF93DF93282F30E0F90174
:100A6000EA5DFF4F8491F901E65CFF4FD491F901F3
:100A7000E25BFF4FC491CC2389F081116DDFEC2F35
:100A8000F0E0EE0FFF1FEE59FF4FA591B4912C91AE
:100A90002D2381E090E021F480E002C080E090E02E
:100AA000DF91CF9108954F925F926F927F92AF92B4
:100AB000BF92CF92DF92EF92FF920F931F93CF934B
:100AC000DF93CDB7DEB729013A01621B730B840BAC
:100AD000950B29893A894B895C892A193B094C096C
:100AE0005D09298B3A8B4B8B5C8B9B01AC0169892F
:100AF0007A898B899C8916D2E418F50806091709AA
:100B0000A80197011ED22A0D3B1D4C1D5D1DCA0177
:100B1000B901DF91CF911F910F91FF90EF90DF907E
:100B2000CF90BF90AF907F906F905F904F9008955F
:100B30000895DEDEFDDFCBDAC0E0D0E029DB2097D0
:100B4000E9F35EDAFBCF08955058BB27AA270ED0F1
:100B500044C135D130F03AD120F031F49F3F11F447
:100B60001EF42AC10EF4E095E7FB20C1E92F46D11F
:100B700080F3BA17620773078407950718F071F4BA
:100B80009EF55EC10EF4E0950B2EBA2FA02D0B0141
:100B9000B90190010C01CA01A0011124FF27591BC2
:100BA00099F0593F50F4503E68F11A16F040A22FC8
:100BB000232F342F4427585FF3CF46953795279539
:100BC000A795F0405395C9F77EF41F16BA0B620B38
:100BD000730B840BBAF09150A1F0FF0FBB1F661F7F
:100BE000771F881FC2F70EC0BA0F621F731F841FC2
:100BF00048F4879577956795B795F7959E3F08F0E8
:100C0000B3CF9395880F08F09927EE0F97958795A6
:100C10000895A8D008F481E008950CD0DEC0D6D0A5
:100C200040F0CDD030F021F45F3F19F0BFC051113A
:100C300008C1C2C0E3D098F39923C9F35523B1F397
:100C4000951B550BBB27AA2762177307840738F03B
:100C50009F5F5F4F220F331F441FAA1FA9F333D09A
:100C60000E2E3AF0E0E830D091505040E695001C4E
:100C7000CAF729D0FE2F27D0660F771F881FBB1F0A
:100C8000261737074807AB07B0E809F0BB0B802DE4
:100C9000BF01FF2793585F4F2AF09E3F510568F030
:100CA00085C0CFC05F3FECF3983EDCF38695779527
:100CB0006795B795F7959F5FC9F7880F911D969532
:100CC000879597F90895E1E0660F771F881FBB1F8E
:100CD000621773078407BA0720F0621B730B840B3B
:100CE000BA0BEE1F88F7E0950895E89409C097FBCA
:100CF0003EF490958095709561957F4F8F4F9F4FF3
:100D00009923A9F0F92F96E9BB279395F695879536
:100D100077956795B795F111F8CFFAF4BB0F11F4F9
:100D200060FF1BC06F5F7F4F8F4F9F4F16C08823A0
:100D300011F096E911C0772321F09EE8872F762FD6
:100D400005C0662371F096E8862F70E060E02AF017
:100D50009A95660F771F881FDAF7880F9695879503
:100D600097F90895990F0008550FAA0BE0E8FEEFD8
:100D700016161706E807F907C0F012161306E4075F
:100D8000F50798F0621B730B840B950B39F40A2658
:100D900061F0232B242B252B21F408950A2609F436
:100DA000A140A6958FEF811D811D089597F99F673A
:100DB00080E870E060E008959FEF80EC08950024E3
:100DC0000A941616170618060906089500240A94B0
:100DD00012161306140605060895092E0394000C36
:100DE00011F4882352F0BB0F40F4BF2B11F460FFC5
:100DF00004C06F5F7F4F8F4F9F4F089557FD9058EE
:100E0000440F551F59F05F3F71F04795880F97FBCE
:100E1000991F61F09F3F79F0879508951216130688
:100E20001406551FF2CF4695F1DF08C016161706B7
:100E30001806991FF1CF86957105610508940895EC
:100E4000E894BB2766277727CB0197F908958ADFB7
:100E500008F48FEF08950BD0C0CFB1DF28F0B6DFD4
:100E600018F0952309F0A2CFA7CF1124EACFC6DF4F
:100E7000A0F3959FD1F3950F50E0551F629FF001AD
:100E8000729FBB27F00DB11D639FAA27F00DB11D06
:100E9000AA1F649F6627B00DA11D661F829F22278F
:100EA000B00DA11D621F739FB00DA11D621F839F16
:100EB000A00D611D221F749F3327A00D611D231FEC
:100EC000849F600D211D822F762F6A2F11249F573A
:100ED00050408AF0E1F088234AF0EE0FFF1FBB1F5D
:100EE000661F771F881F91505040A9F79E3F5105FC
:100EF00070F05CCFA6CF5F3FECF3983EDCF38695B5
:100F000077956795B795F795E7959F5FC1F7FE2BA6
:100F1000880F911D9695879597F9089523DF880B83
:100F2000990B0895DB018F939F9327D0BF91AF91C9
:100F3000A29F800D911DA39F900DB29F900D112433
:100F40000895052E97FB16F400940FD057FD05D099
:100F50001ED007FC02D046F408C05095409530954D
:100F600021953F4F4F4F5F4F089590958095709515
:100F700061957F4F8F4F9F4F089531D0A59F900D62
:100F8000B49F900DA49F800D911D11240895A1E29E
:100F90001A2EAA1BBB1BFD010DC0AA1FBB1FEE1FF3
:100FA000FF1FA217B307E407F50720F0A21BB30B3E
:100FB000E40BF50B661F771F881F991F1A9469F7BA
:100FC00060957095809590959B01AC01BD01CF0116
:100FD0000895EE0FFF1F0590F491E02D0994A29F54
:100FE000B001B39FC001A39F01D0B29F700D811DBE
:0A0FF0001124911D0895F894FFCF1D
:060FFA00010000000100EF
:00000001FF
